:1000000045C0000053C0000051C000004FC00000B8
:100010004DC000004BC0000049C0000047C00000B8
:1000200045C0000043C0000041C000003FC00000C8
:100030003DC000003BC0000039C0000037C00000D8
:1000400035C0000033C0000031C000002FC00000E8
:100050002DC000002BC0000029C0000027C00000F8
:1000600025C0000023C0000021C000001FC0000008
:100070001DC000001BC0000019C0000017C0000018
:1000800015C0000013C0000011C0000011241FBEE5
:10009000CFEFD0E1DEBFCDBF21E0A0E0B1E001C0F5
:1000A0001D92A030B207E1F73AD0E8C0A9CFDC0139
:1000B000CB01880F991FAA1FBB1F880F991FAA1F6A
:1000C000BB1F9C01AD01220F331F441F551F220F80
:1000D000331F441F551F60E070E880E790E0ACD00C
:1000E000215031093093900029B988E18AB986E01E
:1000F00080939500089596E896B9806487B986B193
:10010000806486B9349BFECF24B135B196B190613D
:1001100096B9C901969587959695879508955AEA57
:100120005FBD4AE14EBD2FEF37E437BD26BD85E800
:1001300092E09BBD8ABD99BD88BD50938B004093D2
:100140008A003093810020938000909387008093F1
:100150008600909385008093840090938300809321
:1001600082008FEF87BB82B960E875E280E090E0A3
:100170009EDF80E0C0DF9C01220F331F220F331F60
:10018000820F931F885A9D4F90938700809386001B
:100190008CEC9CE10197F1F700C0000081E0ABDF3F
:1001A0009C01220F331F820F931F880F991F8C50C1
:1001B0009E4F90938500809384008CEC9CE1019786
:1001C000F1F700C0000082E096DF83589F4F880F50
:1001D000991F880F991F90938300809382008CEC65
:1001E0009CE10197F1F700C0000083E084DF9C01EF
:1001F000220F331F220F331F820F931F8C509E4FED
:100200009BBD8ABD8CEC9CE10197F1F700C000001A
:1002100084E071DF9C01220F331F820F931F880F30
:10022000991F8C509E4F99BD88BD8CEC9CE1019725
:10023000F1F700C000009DCFA1E21A2EAA1BBB1B44
:10024000FD010DC0AA1FBB1FEE1FFF1FA217B307A2
:10025000E407F50720F0A21BB30BE40BF50B661FB8
:10026000771F881F991F1A9469F76095709580957C
:1002700090959B01AC01BD01CF010895F894FFCF8B
:00000001FF
