S00B00004144432E7372656351
S11300004DC0000095C00000A7C00000B9C00000AA
S113001062C0000060C000005EC000005CC0000060
S11300205AC0000058C0000056C0000054C0000070
S113003052C0000050C000004EC000004CC0000080
S11300404AC0000048C0000046C0000044C0000090
S113005042C0000040C000003EC000003CC00000A0
S11300603AC0000038C0000036C0000034C00000B0
S113007032C0000030C000002EC000002CC00000C0
S11300802AC0000028C0000026C00000E700EE00DF
S1130090F7000001090112011B01240111241FBEF4
S11300A0CFEFD0E1DEBFCDBF11E0A0E0B1E0E2E7E9
S11300B0F5E000E00BBF02C007900D92A231B1073A
S11300C0D9F721E0A2E1B1E001C01D92AB31B20742
S11300D0E1F7BED14CC294CFDC01CB01880F991F4C
S11300E0AA1FBB1F880F991FAA1FBB1F9C01AD012C
S11300F0220F331F441F551F220F331F441F551F48
S113010060E070E880E790E0E4D121503109309359
S1130110900029B988E18AB986E080939500089512
S11301205D9BFECF8CB908955F9BFECF8CB1089583
S11301301F920F920FB60F9211248F939F9381E019
S113014090E090931601809315019F918F910F90E9
S11301500FBE0F901F9018951F920F920FB60F921B
S113016011248F939F9382E090E0909316018093E3
S113017015019F918F910F900FBE0F901F901895AE
S11301801F920F920FB60F9211248F939F9383E0C7
S113019090E090931601809315019F918F910F9099
S11301A00FBE0F901F901895BFDF809312018091AE
S11301B01201B6DFE09112018E2F90E0FC01F0975E
S11301C0E830F10508F06EC0EA5BFF4FA4C18FEF81
S11301D08BBB109214011092130164C08EEF8BBB81
S11301E081E090E090931401809313015BC08DEF44
S11301F08BBB82E090E0909314018093130152C072
S11302008BEF8BBB83E090E09093140180931301F8
S113021049C087EF8BBB84E090E0909314018093F6
S1130220130140C08FEE8BBB85E090E090931401E6
S11302308093130137C08FED8BBB86E090E09093E1
S11302401401809313012EC08FEB8BBB87E090E0E9
S1130250909314018093130125C0E0911301F09150
S11302601401E050FF4F808180958BBB8091130176
S1130270909114010196909314018093130180913D
S1130280130190911401089721F410921401109213
S113029013012FEF8FE392E0215080409040E1F76B
S11302A000C00000809112018833B9F227C0E091A8
S11302B01301F0911401E050FF4F808180958BBBB6
S11302C080911301909114010197909314018093EC
S11302D013018091130190911401892B31F487E06B
S11302E090E090931401809313012FEF8FE392E039
S11302F0215080409040E1F700C00000809112013D
S11303008933A9F20895309BFECF84B195B19695B7
S113031087959695879590931A018093190140E0EB
S113032050E065C080E282BBE0911901F0911A01AE
S11303309F013695279536952795ABE7B4E1F4D020
S11303409C013695279564E6629FC001639F900DDA
S113035011249F01281B390BADECBCECE5D096951C
S11303608795969587959695879590931801809390
S11303701701E0911701F0911801E85FFE4F8081A9
S1130380809585BB89E993E00197F1F700C080E18E
S113039082BBE0911901F0911A019F01C5D0969595
S11303A0879596958795969587959C01220F331F7F
S11303B0880F991F880F991F880F991F820F931F09
S11303C09F01281B390B3093180120931701E091EA
S11303D01701F0911801E85FFE4F8081809585BB7D
S11303E089E993E00197F1F700C04F5F5F4F44360E
S11303F051050CF497CF08950F931F93CF93DF9378
S1130400C4B1D5B1D695C795D695C795CE0164E646
S113041070E04CD00AE010E0B80148D080E3860FC9
S11304207FDECE01B80142D0805D7ADE8DE078DED9
S11304308AE076DE2FEF8FE39BE0215080409040EE
S1130440E1F700C00000DF91CF911F910F91089553
S11304508FEF8ABB84BB90E391BB9AEA90936A00C6
S11304609FE099BF97EE96B990EC97B9789485BBC5
S11304708BBB60E875E280E090E02EDE8091150190
S113048090911601019711F48FDEF8CF8091150138
S113049090911601029711F436DFF0CF8091150187
S11304A090911601039751F7A7DFE8CF97FB072E2A
S11304B016F4009406D077FD08D045D007FC05D08B
S11304C03EF4909581959F4F0895709561957F4F67
S11304D00895A1E21A2EAA1BBB1BFD010DC0AA1F81
S11304E0BB1FEE1FFF1FA217B307E407F50720F099
S11304F0A21BB30BE40BF50B661F771F881F991F14
S11305001A9469F760957095809590959B01AC015C
S1130510BD01CF010895EE0FFF1F0024001C0BBE88
S11305200790F691E02D0994A29FB001B39FC001FA
S1130530A39F700D811D1124911DB29F700D811D0B
S11305401124911D0895AA1BBB1B51E107C0AA1FCA
S1130550BB1FA617B70710F0A61BB70B881F991F60
S11305605A95A9F780959095BC01CD010895F8940A
S1050570FFCFB7
S113057200010204081020403F065B4F666D7D07B0
S10505827F6F85
S9030000FC
