:100000004DC0000095C00000A7C00000B9C00000AE
:1000100062C0000060C000005EC000005CC0000064
:100020005AC0000058C0000056C0000054C0000074
:1000300052C0000050C000004EC000004CC0000084
:100040004AC0000048C0000046C0000044C0000094
:1000500042C0000040C000003EC000003CC00000A4
:100060003AC0000038C0000036C0000034C00000B4
:1000700032C0000030C000002EC000002CC00000C4
:100080002AC0000028C0000026C00000E700F000E1
:10009000F90002010B0114011D01260111241FBEEC
:1000A000CFEFD0E1DEBFCDBF11E0A0E0B1E0EAECE0
:1000B000F4E000E00BBF02C007900D92AA30B10738
:1000C000D9F721E0AAE0B1E001C01D92A331B20747
:1000D000E1F76AD1F8C194CFDC01CB01880F991FF9
:1000E000AA1FBB1F880F991FAA1FBB1F9C01AD0130
:1000F000220F331F441F551F220F331F441F551F4C
:1001000060E070E880E790E090D1215031093093B1
:10011000900029B988E18AB986E080939500089516
:100120005D9BFECF8CB908955F9BFECF8CB1089587
:100130001F920F920FB60F9211248F939F9381E01D
:1001400090E090930E0180930D019F918F910F90FD
:100150000FBE0F901F9018951F920F920FB60F921F
:1001600011248F939F9382E090E090930E018093EF
:100170000D019F918F910F900FBE0F901F901895BA
:100180001F920F920FB60F9211248F939F9383E0CB
:1001900090E090930E0180930D019F918F910F90AD
:1001A0000FBE0F901F901895BFDF80930A018091BA
:1001B0000A01B6DFE0910A018E2F90E0FC01F09772
:1001C000E830F10508F04AC0EA5BFF4F50C18FEFFD
:1001D0008BBB8FEF9FEF90930C0180930B010895E1
:1001E0008EEF8BBB8EEF9FEF90930C0180930B01F2
:1001F00008958DEF8BBB8DEF9FEF90930C01809353
:100200000B0108958BEF8BBB8BEF9FEF90930C014D
:1002100080930B01089587EF8BBB87EF9FEF90933F
:100220000C0180930B0108958FEE8BBB8FEE9FEF37
:1002300090930C0180930B0108958FED8BBB8FED94
:100240009FEF90930C0180930B0108958FEB8BBB74
:100250008FEB9FEF90930C0180930B010895309BDF
:10026000FECF84B195B19695879596958795909395
:1002700012018093110140E050E065C080E282BB32
:10028000E0911101F09112019F0136952795369565
:100290002795ABE7B4E1F4D09C013695279564E649
:1002A000629FC001639F900D11249F01281B390B91
:1002B000ADECBCECE5D0969587959695879596958F
:1002C00087959093100180930F01E0910F01F091B9
:1002D0001001E050FF4F8081809585BB89E993E054
:1002E0000197F1F700C080E182BBE0911101F0912C
:1002F00012019F01C5D096958795969587959695FD
:1003000087959C01220F331F880F991F880F991F13
:10031000880F991F820F931F9F01281B390B309361
:10032000100120930F01E0910F01F0911001E050B6
:10033000FF4F8081809585BB89E993E00197F1F7B4
:1003400000C04F5F5F4F443651050CF497CF0895BE
:100350000F931F93CF93DF93C4B1D5B1D695C795B3
:10036000D695C795CE0164E670E04CD00AE010E067
:10037000B80148D080E3860FD3DECE01B80142D069
:10038000805DCEDE8DE0CCDE8AE0CADE2FEF8FE32B
:100390009BE0215080409040E1F700C00000DF91D9
:1003A000CF911F910F9108958FEF8ABB84BB90E38B
:1003B00091BB9AEA90936A009FE099BF97EE96B935
:1003C00091EC97B9789485BB8BBB60E875E280E0CF
:1003D00090E082DE80910D0190910E01019711F461
:1003E000E3DEF8CF80910D0190910E01029711F498
:1003F00036DFF0CF80910D0190910E01039751F7F8
:10040000A7DFE8CF97FB072E16F4009406D077FD00
:1004100008D045D007FC05D03EF4909581959F4FBC
:100420000895709561957F4F0895A1E21A2EAA1B39
:10043000BB1BFD010DC0AA1FBB1FEE1FFF1FA21794
:10044000B307E407F50720F0A21BB30BE40BF50B91
:10045000661F771F881F991F1A9469F7609570951A
:10046000809590959B01AC01BD01CF010895EE0FE1
:10047000FF1F0024001C0BBE0790F691E02D09948D
:10048000A29FB001B39FC001A39F700D811D1124D5
:10049000911DB29F700D811D1124911D0895AA1BFD
:1004A000BB1B51E107C0AA1FBB1FA617B70710F05F
:1004B000A61BB70B881F991F5A95A9F78095909591
:0A04C000BC01CD010895F894FFCFB0
:0A04CA003F065B4F666D7D077F6FF4
:00000001FF
